:020000040800F2
:1000000050BD002045010008AB440008C13B00087A
:10001000A9440008D10C0008B368000800000000E3
:10002000000000000000000000000000614C00081B
:100030000712000800000000C14700082D4E00080C
:100040005F0100085F0100085F0100085F01000810
:100050005F0100085F0100085F0100085F01000800
:100060005F0100085F0100085F0100085F010008F0
:100070005F0100085F0100085F0100085F010008E0
:100080005F0100085F0100085F0100085F010008D0
:100090003D6800085F0100085F0100085F0100087B
:1000A0005F0100085F0100085F0100085F010008B0
:1000B0005F0100085F0100085F0100085F010008A0
:1000C0005F0100085F0100085F0100085F01000890
:1000D0005F010008215100085F0100085F0100086E
:1000E0005F0100085F0100085F0100085F01000870
:1000F0005F0100085F0100085F0100085F01000860
:100100005F0100085F0100085F0100085F0100084F
:100110005F0100085F0100085F0100085F0100083F
:100120005F0100085F0100085F010008D1110008AD
:10013000DFF80CD000F0DAFB00480047D971000866
:1001400050BD00200648804706480047FEE7FEE70E
:10015000FEE7FEE7FEE7FEE7FEE7FEE7FEE7FEE777
:10016000974E000831010008202A04DB203A21FACA
:1001700002F00021704721FA02F3D040C2F12002C0
:10018000914008431946704740EA01039B0703D09A
:1001900009E008C9121F08C0042AFAD203E011F8C6
:1001A000013B00F8013B521EF9D27047D2B201E088
:1001B00000F8012B491EFBD270470022F6E710B56C
:1001C00013460A4604461946FFF7F0FF204610BDC5
:1001D000421C10F8011B0029FBD1801A704780EAED
:1001E000010210B502F00043400022D04A001FD0A7
:1001F000010E01EB1261C0F35600C2F3560240F447
:10020000000042F40002A0FB022000047F39140425
:1002100000D0401C50EA124001D44000491EC2B236
:100220000C0604EBD010401C4008802A02D003E0EA
:10023000002010BD20F00100002900DA0020184342
:1002400010BD2DE9FE4F804681EA0300C00F0C4629
:10025000009021F0004123F00045B8EB0200A941D5
:1002600005D24046214690461C460B46024623F0E6
:100270000040104347D0270DC7F30A00C3F30A51CB
:100280000290401A019040286BDAC3F3130040F447
:10029000801B0098924620B10023D2EB030A63EB47
:1002A0000B0B01985946C0F14002504600F039FA54
:1002B00006460D4650465946019A00F041FA10EBA9
:1002C00008006141002487EA115284EAE7731A4367
:1002D00040D0009A62B3019A012A4FEA075215DC16
:1002E000001B61EB02014FF0004202EA0752CDE928
:1002F0000042001C41F5801132462B4600F078FA8E
:1003000003B0BDE8F08F40462146F9E7001B61EBE2
:100310000201001C41F5801300185B412018A2F572
:10032000001747EB030140EAD570B6196D4111E0A3
:100330006D084FEA360645EAC0754FEA0752001BC2
:1003400061EB0201001C41F5801149084FEA3000C1
:100350000019514132462B4603B0BDE8F04F00F082
:1003600038BA0098012240000023D0EB020263EB70
:10037000E073009821464FEAE074B8EB000061EBAF
:100380000401E9E783F000435BE781F0004158E7AF
:100390002DE9FE4F81EA030404F0004421F00041FE
:1003A00000944FF0000B23F0004350EA01045ED0AC
:1003B00052EA03045BD0C3F30A54C1F30A552C4438
:1003C000A4F2F3340194A0FB0254C1F3130141F4ED
:1003D0008011C3F3130343F4801301FB024400FBB9
:1003E000034E840A970A44EA815447EA8357A4FBE0
:1003F000076802958D0A05FB07854FEA932C04FBDD
:100400000C542705029D4FEA065847EA1637B5EB0C
:1004100008056EEB070C870E920E47EA811742EA39
:100420008312A7FB0201B6EB0B0164EB00042B0D5A
:1004300043EA0C335E1844EB1C50DA465146E7FBA6
:100440000201C5F313044FEA0B3343EA14534FEA96
:100450000432019C43EA0603A4F10C040294009CBC
:10046000CDE900B400F0C4F903B0BDE8F08F00207E
:100470000146F9E72DE9F04D81EA030404F0004B51
:1004800021F0004514464FF0000A23F0004150EAE5
:10049000050220D054EA01021DD0C5F30A570246D6
:1004A000C5F31303C1F31300C1F30A5640F48015DA
:1004B00043F48013A7EB0608101BD64608F2FD385C
:1004C00073EB050002D308F1010801E092185B41CB
:1004D000B8F1000F03DA00200146BDE8F08D0020DE
:1004E0004FF48011064684460EE0171B73EB050798
:1004F00005D3121B63EB050306434CEA010C4908C4
:100500004FEA300092185B4150EA0107EDD152EA00
:10051000030012D082EA040083EA0501084305D0F3
:10052000101BAB4106D20122002306E000224FF04F
:10053000004302E06FF0010253101AEB06004CEB8F
:10054000085110EB0A0041EB0B01BDE8F04D00F043
:1005500040B970B521F0004303430CD0C1F30A55F4
:100560000024D5EB040564EB0403D617AD1AB341A0
:1005700002DB0020014670BD201841EB025170BD26
:1005800096230022114600F0F6B80EB540F2334132
:1005900002910021CDE900110A460B4600F028F92E
:1005A00003B000BD00F0004220F00040C10DC0F3D8
:1005B000160040F400007F2901DA002070479629D8
:1005C00003DCC1F19601C84001E096398840002A59
:1005D000F4D04042704720F00040C10DC0F3160037
:1005E00040F400007F2901DA00207047962903DCDF
:1005F000C1F19601C840704796398840704770B580
:10060000C1F30A5201F000450024C1F3130140F286
:10061000FF3341F480119A4201DA002070BD40F2AC
:1006200033439A42A2F2334203DC5242FFF79CFD6D
:1006300000E090402C43F1D0404270BDC1F30A521B
:1006400010B5C1F3130140F2FF3341F480119A4217
:1006500001DA002010BD40F233439A42A2F2334245
:1006600003DC5242FFF780FD10BD904010BD00F04A
:10067000004230F000400AD0C10D01F56071C0F3B6
:10068000160042EA0151C20840071143704700209A
:100690000146704730B50B46014600202022012458
:1006A00009E021FA02F59D4205D303FA02F5491B40
:1006B00004FA02F52844151EA2F10102F1DC30BD56
:1006C0002DE9F05F0546002092469B468846064687
:1006D000814640241BE02846414647462246FFF714
:1006E00043FD53465A46C01A914110D3114618464D
:1006F000224600F016F82D1A67EB01084F462246F5
:100700000120002100F00DF817EB00094E41201EDA
:10071000A4F10104DFDC484631462A464346BDE8E1
:10072000F09F202A04DB203A00FA02F100207047F3
:100730009140C2F1200320FA03F31943904070471F
:10074000202A06DBCB17203A41FA02F043EAE07395
:1007500006E041FA02F3D040C2F120029140084382
:10076000194670470029A8BF7047401C490008BFC0
:1007700020F00100704710B4B0FA80FC00FA0CF0D1
:1007800050EA010404BF10BC704749B1CCF1200409
:1007900021FA04F411FA0CF118BF01212143084396
:1007A000A3EB0C01CB1D4FEA00614FEA102042BFC2
:1007B000002010BC704700EBC35010440029A4BFB8
:1007C00010BC7047401C490008BF20F0010010BC5D
:1007D000704710B5141E73F1000408DA401C41F193
:1007E000000192185B411A4301D120F0010010BDB5
:1007F0002DE9F04D92469B4611B1B1FA81F202E02B
:10080000B0FA80F220329046FFF78BFF04460F4685
:1008100040EA0A0041EA0B0153465A46084313D006
:10082000114653EA010019D0C8F140025046FFF7C3
:100830009BFC05460E46504659464246FFF771FF5F
:10084000084305D0012004E020463946BDE8F08D7C
:100850000020054346EAE0762C4337430A986305B7
:10086000E40AA0EB08000022FD0A44EA47540A30DB
:1008700002D500200146E9E7010510196941DDE9CB
:10088000084500196941BDE8F04DA2E7C1F30A52DD
:10089000C1F3130140F2FF3341F480119A4202DAAE
:1008A00000200146704740F233439A42A2F233429D
:1008B00002DC5242FFF758BCFFF733BF30B5041ECD
:1008C00071F1000404DB4FF00044404264EB01018D
:1008D000141E73F1000405DB1C464FF00043524226
:1008E00063EB0403994208BF904230BD064C074DAC
:1008F00006E0E06840F0010394E8070098471034F0
:10090000AC42F6D3FFF718FC2075000840750008CC
:1009100070B58C1810F8015B15F0070301D110F8C1
:10092000013B2A1106D110F8012B03E010F8016BEE
:1009300001F8016B5B1EF9D12B0705D40023521E71
:100940000DD401F8013BFAE710F8013BCB1A921CD9
:1009500003E013F8015B01F8015B521EF9D5A142D7
:10096000D8D3002070BD0000F0B50646C1B01C46CB
:1009700017460D464FF47A7001F0BCFB32463946FB
:10098000284600F06BF8114800EB440110F8140001
:10099000497800F075F94FF480716846FFF70DFC57
:1009A0002846FFF718FE0949034604EB840010317E
:1009B00001EB400206A1684605F07CFF684604F0A2
:1009C00061F90AA004F05EF941B0F0BDC401002055
:1009D0005B6D61696E5D696E666F203A6464732851
:1009E0002573293D2575687A000000000D0A000076
:1009F0004FF40450AFF3008038B500210091010A94
:100A00008DF800100A4D8DF801004FF4805400223B
:100A10002146284601F089FC322302226946054816
:100A200002F00AFE01222146284601F07EFC38BD74
:100A3000000C0140100B002040B1012809D0022811
:100A40000AD142F2020000BFFFF7D6BF4FF40050B8
:100A5000FAE742F22800F7E77047000070B5064653
:100A600015460C46012001F045FB1D48844200DD7F
:100A700004461C492046FFF7B2FBFFF793FD1A4CD2
:100A800040F4404060603046FFF7F1FD174A184BD4
:100A9000FFF77EFC0022174BFFF7D3FBFFF7AFFDFC
:100AA000C0F38D31C0F30D0040F48040208041F44C
:100AB00080406080012001F01DFB4FF40450FFF7DF
:100AC0009BFF2088FFF798FF6088FFF795FFA088BD
:100AD00080B2FFF791FF2846BDE87040FFF7ACBF3A
:100AE0000000B44300003041BC010020CDCCCCCC90
:100AF000CCCC30400000F03F70B5044600688168FF
:100B0000C943C90717D1816821F00101816001F053
:100B100011FC05460AE000BF01F00CFC401B022856
:100B200004D920688068C043C00706D02068806868
:100B3000C043C007F0D0002070BDA06A40F0100094
:100B4000A062E06A40F00100E062012070BD10B5D3
:100B50000146406A826A12F0500F05D0006A026BAB
:100B6000BDE8104008461047816A41F40071816277
:100B700001688968C1F3424107290CD1017B51B951
:100B8000816A21F480718162816AC90403D4816A17
:100B900041F00101816200F087FD10BD10B5406A8F
:100BA000816A41F040018162C16A41F00401C16281
:100BB00000F07CFD10BD10B5406A00F076FD10BD60
:100BC000F8B500260446009600688168C943C90745
:100BD0002DD0816841F001018160164816490068F6
:100BE000B0FBF1F000E0401E00900028FBD101F0C6
:100BF000A1FB054616E000BF01F09CFB401B02284C
:100C000010D920688068C043C0070BD0A06A40F0AC
:100C10001000A062E06A40F00100E06284F8246005
:100C20000120F8BD20688068C043C007E4D10020DF
:100C3000F8BD00003402002040420F0000200449AB
:100C400002460A54401CC0B20828FAD97047000076
:100C5000B401002070B5094D4FF480740022214684
:100C6000284601F062FB01222146284601F05DFB87
:100C7000BDE87040012001F03DBA000000080140CD
:100C800070B50C460546FFF7E5FF0E49C5F10800B3
:100C90000123641E0A5CA3401A430A540A4C002232
:100CA0001021204601F041FB322308220549074864
:100CB00002F0C2FC2046BDE870400122102101F084
:100CC00034BB0000B401002000080140B80A002035
:100CD000FEE70020704700207047000010B500229A
:100CE0000449054804F014FB0449034804F00AFBD6
:100CF000002010BD58140020AC0B00207010002004
:100D000010B50146034804F0FDFA024804F0DEFA8B
:100D1000002010BDAC0B00202DE9F0410C46022153
:100D20001A4B00225A54491C0429FBDB212101EBF8
:100D300010171D21C0F3420501EB50162935C007DD
:100D4000214614D05FF01C0003F082FE21462846A5
:100D500003F07EFE2146384603F07AFE21463046F7
:100D600003F076FE022C04D0032C05D008E01B20F3
:100D7000EAE72146192001E021461A2003F068FE27
:100D8000BDE8F0410821014802F05CBFB00000203E
:100D900070B505464FF6FF7000224AF201040DE0DF
:100DA000AB5C58400023C6074FEA500000D06040BB
:100DB0005B1C9BB2082BF6D3521C92B28A42EFD333
:100DC00070BD000010B50C4800F022F80B4B0C4A27
:100DD000AA210C4800F0DAF90B4980230122A1F185
:100DE000140003F075FE08490122BDE810402039C7
:100DF000064802F063BE0000854C00084D4A00081A
:100E0000654C00082407002064090020680B0020BE
:100E1000002801D00149086070470000240200202A
:100E20002DE9F04FC1B015008A4681467DD04FF4C0
:100E3000807739466846FFF7C0F977A1684605F024
:100E400039FD794C684621688847216877A0884732
:100E5000002610E039466846FFF7AFF91AF8062079
:100E600073A1684605F026FD216868468847216819
:100E70006EA08847761CAE42ECD34FF48071684672
:100E8000FFF79BF969A1684605F014FD21686846E3
:100E9000A3468847216865A08847002609F1060413
:100EA000B4E009F10100C11C57464FF404784FF03B
:100EB000000E421D1EE0BB5D90F800C0761CBCF128
:100EC000000F11D0C02B09D0B1F800C0C44511D219
:100ED00002F80C300B885B1C0B800BE00A88A1F831
:100EE00000E00121017008E0C02B03D1A1F800E06F
:100EF00001230370AE42DED37246ADF80021002A12
:100F0000CED04FF480716846FFF757F94AA1684682
:100F100005F0D0FCDBF800106846D8465F468847ED
:100F2000396842A08847002710E072E0FFF745F9D2
:100F3000E25D3FA1684605F0BDFCD8F800106846A8
:100F40008847D8F8001039A088477F1CBDF80001F9
:100F50004FF4807187426846E8D3FFF72EF933A13A
:100F6000684605F0A7FCD8F8001068464746884751
:100F700039682EA0884740A9204600F046F94FF472
:100F800080716846FFF719F92EA1684605F092FCBA
:100F9000396868468847396824A0884700270FE0E9
:100FA000FFF70BF9E25D22A1684605F083FCD8F853
:100FB000001068468847D8F800101CA088477F1C9E
:100FC000BDF800014FF4807187426846E8D3FFF70F
:100FD000F4F816A1684605F06DFCD8F800106846D4
:100FE00047468847396811A08847BDF80011204658
:100FF00002F09AFE50B1BDF80001204430F8020C16
:10100000A4F80E02D9F81C1220468847AE42FFF41D
:1010100048AF41B0BDE8F08F0D0AB4FDB4A6C0EDF5
:10102000CAFDBEDD3A200000240200200D0A0000A7
:101030002530325820000000D7AAD2E5CAFDBEDD17
:101040003A200000D4ADCABCCAFDBEDD3A20000083
:101050002DE9F043ADF5477D0F46DDE9CE48054665
:10106000994616464FF404716846FFF7A6F82878AB
:101070009DF804108DF8000068F300018DF80170F0
:101080008DF80410ADF80260A8788DF805008DF891
:101090000640224649460DF10700FFF775F89DF816
:1010A00006006F460930ADF81003801E81B2384645
:1010B000FFF76EFEADF810029DF80610F81D08440B
:1010C000BDF8101201804FF48078414684A8FFF7E4
:1010D00074F828A184A805F0EDFB284C84A82168A9
:1010E0008847216826A0884700260DE0FFF765F8AD
:1010F000BA5D24A184A805F0DDFB216884A8884797
:1011000021681FA08847761CBDF81003414686421F
:1011100084A8EBD3FFF751F819A184A805F0CAFB06
:10112000216884A88847216815A08847C4A9384643
:1011300003F058FCC0208DF81403D5F818220121C3
:10114000C5A89047012810D1D5F81822BDF8101372
:1011500038469047BDF81013884206D1D5F81822BA
:101160000121C5A89047012800D000200DF5477D3A
:10117000BDE8F08373656E643A200000240200200D
:101180000D0A000025303258200000002DE9F04102
:101190000F461D46164604464FF40871FFF70DF83A
:1011A00027700020607036B1C4F818623DB1C4F8F1
:1011B0001C52BDE8F0810448C4F81802F6E7034861
:1011C000C4F81C02F5E70000814C00084B4A0008F7
:1011D000014800F0F5BD0000740A002030B590F819
:1011E00040500124AC40C56B6C6004686360436888
:1011F000102B036803D099600068C26030BD9A600C
:101200000068C16030BD70477047F0B50F460D886B
:101210004FF40471ADF5057D06468D4220D80024BB
:101220006846FEF7CAFF2A4631466846FEF7ACFF1D
:10123000002069464FF0C00C4FF0DB0E0DE00A5C59
:10124000DB2A05D10B185B78DC2B0CD0DD2B0DD005
:101250003255641C401CA4B280B2A842EFD33C803B
:101260000DF5057DF0BD06F804C001E006F804E0C8
:10127000401C80B2EDE7000070B594B0114D002421
:101280006E460A2000F036FF204603F047FD0A2094
:1012900000F030FF204602F02DFE26F81400C1B207
:1012A00025F8241005EB8401000A4880FFF7C6FCEE
:1012B0000A2000F01FFF641CE4B2282CE1D314B014
:1012C000004870BDAC03002000B597B0FFF7D4FF15
:1012D000002102AB10F811205A54491CC9B2502900
:1012E000F8D300215020CDE9000140F2A3420121B2
:1012F0000248FFF7ADFE17B000BD00002407002034
:1013000010B5144800F0E6F8124800F08DFB3221C9
:10131000104800F0EBFA0F4800F0C9F90E4C8005B8
:1013200003D50C4800F0C5F920800C4800F0D2F835
:101330000A4800F079FB3221084800F0D7FA074844
:1013400000F0B5F9800503D5044800F0B2F96080DB
:1013500010BD0000E4090020B8000020140A00209D
:101360002DE9F041804603F009FD0A2000F0C2FE9D
:10137000254A00231188084632F813408C4200DDCC
:1013800021465B1CC82BF7DB5FF0000332F81340EB
:10139000844200DA20465B1CC82BF7DB0B1803EBFA
:1013A000D3735C100025B2F864702B46A7420FDDA2
:1013B0005FF0320632F816C0A44503DA4FF001039D
:1013C00005F1010501DD012B02D0761CC82EF1DBF1
:1013D000A7420FDA5FF0320632F81670A74203DD3B
:1013E0004FF0010305F1010501DA012B02D0761C53
:1013F000C82EF1DB081A054A690092FBF1F1C8E931
:101400000010BDE8F08100004C040020601F0D00BA
:1014100070B50446C2B0012000F06CFEE079401CBB
:10142000C1B20220FFF72CFC6846FFF799FFDDE907
:101430000045012000F05EFE4FF48076314668469C
:10144000FEF7BBFE224619A1684605F033FA68464E
:1014500003F018FC194803F015FC31466846FEF706
:10146000ACFE2A4616A1684605F024FA684603F049
:1014700009FC124803F006FC8DF80041200A8DF8A3
:101480000101200C8DF80201280A8DF804010021C9
:101490000520CDE900018DF8035140AB42F2A322B3
:1014A00001210B48FFF7D4FD42B070BD50696E6C4E
:1014B00076206973202564687A0A0000A449000830
:1014C00046757A68692069732025646D760A000084
:1014D00024070020F8B500250446009590F8240064
:1014E000012808D0012084F824002046FFF704FBDF
:1014F000060002D053E00220F8BDA06A20F4885014
:1015000040F00200A062022001F080FC2649096838
:10151000B1FBF0F0400000E0401E00900028FBD13D
:101520002046FFF74DFB2068816841F0080181608B
:1015300000F000FF074608E000F0FCFEC01B0A2890
:1015400003D920688068000715D4206880680007E8
:10155000F2D42068816841F00401816000F0EAFE65
:10156000074612E000F0E6FEC01B0A280DD92068ED
:101570008068400709D5A06A20F0020040F0100002
:10158000A06284F824500120F8BD206880684007DC
:10159000E8D4A06A20F0020040F00100A06284F8C4
:1015A00024503046F8BD000034020020F8B5002475
:1015B000009490F824202546012A12D0012280F8B8
:1015C00024204A681F23072A0DD20668776B521E13
:1015D00002EB820293409F430B6893401F43776363
:1015E00019E00220F8BD06680D2A0AD2376BD21F17
:1015F00002EB820293409F430B6893401F43376383
:1016000009E0F76A0D3A02EB820293409F430B68B0
:1016100093401F43F7620A68072306680A2A0AD321
:10162000F7680A3A02EB420293409F438B6893406B
:101630001F43F76008E0376902EB420293409F4383
:101640008B6893401F4337610A68102A01D0112A22
:1016500020D1124B02689A4217D193681B0219D409
:10166000936843F4000393600968102912D10C4970
:101670000C4A0968B1FBF2F101EB8101490000E07D
:10168000491E00910029FBD104E0816A41F020014C
:101690008162012480F824502046F8BD00240140D6
:1016A0003402002040420F00704770477047806A44
:1016B00070470068C06C70472DE9F04104004FF09E
:1016C00000057FD0A06A002628B9E66284F824606D
:1016D000204600F081F82046FFF70EFAA16AC906FD
:1016E00000D420B1A06A40F01000A0626AE0A16AB4
:1016F00021F4885141F00201A162334923688B42F1
:10170000E16904D1B1F5402F01D14FF40021277BCD
:101710004FF4807C41EA470261680A43A168614551
:1017200008D0012906D0002194F814E0BEF1010F81
:1017300002D00AE06146F7E7C7B1A76A47F0200781
:10174000A762E76A47F00107E7625F6827F4694725
:101750000F435F60236899681C4F394011439960BB
:10176000A16861450BD0012909D00CE0DFF860E0E9
:10177000A7690EEB47370F4347F40061E5E7218A7D
:101780000D05A5F580152168CB6A23F470032B4362
:10179000CB62216889680F4B1940914208D1E662FB
:1017A000A16A21F0020141F00101A162BDE8F081CE
:1017B000A06A20F0020040F01000A062E06A40F051
:1017C0000100E0620120F1E7003C0140FDF7E1FF8C
:1017D00000E0FFFFFE0E1FFF2DE9F04186B000265E
:1017E0000546009601960296039600683849394CE2
:1017F0000327DFF8E480884214D13848FFF76AFEF7
:10180000A06940F40070A061A06900F40070049029
:10181000A06940F00400A061A06900F004000490F9
:10182000012017E02E4988421DD12C483030FFF7A7
:1018300051FEA06940F48060A061A06900F480605E
:101840000490A06940F00400A061A06900F00400C9
:1018500004900220CDE900076946404600F05CFC98
:1018600006B0BDE8F0811F498842F9D1A06940F473
:101870000040A061A06900F400400490A06940F01D
:101880000400A061A069694600F0040004900420EF
:10189000CDE90007404600F03FFC104C1248903460
:1018A000C4E900068020C4E9026040002061800095
:1018B00060612020A0614FF44050E061204600F0BC
:1018C000A3FB08B1FFF7A0FC2C626562C8E700002B
:1018D000002401400010024000080140E4090020FB
:1018E00000280140003C0140580402402DE9F84323
:1018F00000270D460446009700F01CFD8046206836
:101900008168C90508D5A06A40F02000A06284F86B
:1019100024700120BDE8F8834168C90503D4C06A7A
:1019200010F4700F2AD0022001F070FA3B490968C8
:10193000B1FBF0F62068036939490B424FEA6101B7
:101940004FEAA1121FD1C3684FEA611C13EA0C0FC2
:1019500019D103690B4225D1C068104222D114204D
:1019600023E0681C0AD02DB100F0E4FCA0EB0800D5
:10197000A84203D920680068800725D52068006840
:101980008007EED52DE003690B4202D1C1681142F8
:1019900006D0026923490A4206D1C068084203D131
:1019A000542002E0292000E0FC204643009816E085
:1019B000681C11D02DB100F0BDFCA0EB0800A842BE
:1019C0000AD90098B04207D2A06A40F00400A06291
:1019D00084F8247003209DE70098401C0090B042DA
:1019E000E6D321686FF012000860A06A40F400702E
:1019F000A06220688068C0F3424007280CD1207B99
:101A000050B9A06A20F48070A062A06AC00403D418
:101A1000A06A40F00100A06200207BE734020020B1
:101A2000244992244992240070B5044690F8240079
:101A300001280DD0012084F824002046FFF7C0F8CB
:101A400002004FF0000005D084F82400104670BD5D
:101A5000022070BDA16A40F20123994341F48071D4
:101A6000A1621F4D23681F49AB4218D10E6816F4BE
:101A7000702F14D0A66A46F48016A6620E6876050A
:101A800005D5A66A26F4005646F48056A662A66AD4
:101A9000F6040AD5E66A26F00606E66206E0A66ABD
:101AA00026F48016A6625E68E9E7E06284F8240006
:101AB0006FF00200186020688368C3F34243072B6D
:101AC00005D1A84208D1096811F4702F04D08168AB
:101AD00041F480118160B9E7816841F4A001F9E720
:101AE00000280140042401402DE9F04789460446BE
:101AF0003B4900683B4F0E1D9046884201D0B842DA
:101B000007D1306810F4702F03D001252846BDE8B6
:101B1000F08794F8240001280CD0012084F82400D8
:101B20002046FFF74DF805004FF0000004D084F880
:101B30002400EBE70220EAE7A16A40F60162914344
:101B400041F48071A1622168B94218D1326812F45F
:101B5000702F14D0A16A41F48011A1623168490547
:101B600005D5A16A21F4005141F48051A162A16A16
:101B7000C9040AD5E16A21F00601E16206E0A26A21
:101B800022F48012A2624968E9E7E06284F8240046
:101B9000216A15488862216A1448C862216A14487B
:101BA000086321686FF0020008602068816841F4D2
:101BB00080718160216843464A464C31206A00F0BA
:101BC00061FA20688168C1F342410729816803D026
:101BD00041F48011816099E741F4A001FAE7000027
:101BE00000240140002801404F0B0008B70B0008FB
:101BF0009D0B000810B5044690F82400012807D07A
:101C0000012084F824002046FEF776FF10B113E08F
:101C1000022010BD21688A6822F480728A60216ADD
:101C200091F82120022A07D1084600F00EF8A16A97
:101C300030B141F04001A162002184F8241010BDB0
:101C400021F4885141F00101F5E710B590F8211019
:101C50000022022905D00421816380F82020012080
:101C600010BD01680B6823F00E030B6001680B6860
:101C700023F001030B6090F84030C46B012101FA9E
:101C800003F3636080F8211080F82020104610BD17
:101C90002DE9F05F90F821100024022903D00421DF
:101CA0008163012485E001680A6822F00E020A605F
:101CB00001680A6822F001020A603F4E3E4FB215E9
:101CC000DFF8F4C0DFF8F090DFF8ECA0DFF8E8B060
:101CD000DFF8E4E00168783F13011502ACF1640C11
:101CE000A9F15009AAF13C0AABF1280BAEF1140E90
:101CF0004FF48018B14227D9B9420ED0614512D0B5
:101D000049451DD0514518D0594518D0714501D1CC
:101D1000424615E0294EB14201D1012210E0274E82
:101D20001436B14201D110220AE0244E2836B142C5
:101D300006D0224A3C32914201D11A4600E02A469E
:101D40001E49091F0A602BE0B94213D0614517D024
:101D5000494522D051451DD059451DD0714501D16D
:101D600042461AE0B14202D14FF0807215E0134EA4
:101D7000B14201D1012210E0104E1436B14201D11E
:101D800010220AE00D4E2836B14206D00B4A3C32F2
:101D9000914201D11A4600E02A46074980394A603B
:101DA000012180F82110002180F82010416B01B141
:101DB00088472046BDE8F09F8000024008040240AA
:101DC0002DE9F05FC16B0A6801680B68046C4FF085
:101DD000040808FA04F8844D844E854FDFF814C2D5
:101DE000DFF81492DFF814A2DFF814B2DFF814E27F
:101DF00018EA020F65D05FEA437862D50A68920656
:101E000003D40A6822F004020A60DFF8F0814FF47C
:101E10008062016808F1140813011402414524D9B5
:101E2000A9420DD0B1420FD0B9421AD0614515D0A8
:101E3000494515D0514501D1120312E0594501D150
:101E400004220EE0714501D140220AE06D4D1435A7
:101E5000A94206D06B4A2832914201D11A4600E0CD
:101E600022466749091F0A6029E0A94213D0B142FE
:101E700015D0B94220D061451BD049451BD05145F2
:101E800002D14FF4800217E0414502D14FF0806249
:101E900012E0594501D104220EE0714501D14022E2
:101EA0000AE0584D1435A94206D0564A28329142CC
:101EB00001D11A4600E022464B4908394A60C16AFE
:101EC00071E04FF0020808FA04F818EA020F70D027
:101ED0005FEA83786DD50A68920606D40A6822F014
:101EE0000A020A60012180F82110DFF810814FF406
:101EF0000072016808F1140813011402414524D945
:101F0000A9420DD0B1420FD0B9421AD0614515D0C7
:101F1000494515D0514501D1120312E0594501D16F
:101F200002220EE0714501D120220AE0354D143520
:101F3000A94206D0334A2832914201D11A4600E024
:101F400022462F49091F0A6029E0A94213D0B14255
:101F500015D0B94220D061451BD049451BD0514511
:101F600002D14FF4001217E0414502D14FF0007248
:101F700012E0594501D102220EE0714501D1202223
:101F80000AE0204D1435A94206D01E4A283291425B
:101F900001D11A4600E02246134908394A6000215F
:101FA00080F82010816A00291CD0BDE8F05F084746
:101FB000FFE70825A540154214D01A0712D50A6874
:101FC00022F00E020A6090F84020C36B012101FA52
:101FD00002F25A60816380F82110002180F82010FD
:101FE000016BE0E7BDE8F09F080002401C000240E2
:101FF0003000024044000240580002406C000240A1
:10200000080402401C04024030B560B11A4B02685B
:1020100014219A4209D2194B1344B3FBF1F1890000
:10202000016417490AE0012030BD134B5B421344A1
:10203000B3FBF1F1890001640F490839C163022142
:1020400080F82110136843F6F0718B43F0E9011416
:102050002143D0E902452C432143046921434469CB
:102060002143846921431943116000214163012206
:1020700042770177084630BD08040240F8FFFDBFF3
:102080000000024070B5044690F8200000250128A9
:102090000CD0012084F8200094F821600020012E4B
:1020A00006D084F820000225284670BD022070BDAD
:1020B000022684F82160A0632068066826F00106E5
:1020C00006602046FFF78AF8E06A00282068016869
:1020D00002D041F00E0106E021F004010160206809
:1020E000016841F00A0101602068016841F00101C6
:1020F0000160D9E770B5044600F01CF90546601C84
:1021000002D004480078044400F014F9401BA042B7
:10211000FAD370BD280200202DE9F84FDFF8C891EE
:10212000002409F1040A0AF1040B23460F270BF1DE
:10213000040ED1E00125A54006EA0502AA4276D1A7
:10214000DFF8A8C14E68A6EB0C0866452BD00DDC65
:10215000032E34D005DC36B3012E19D0022E2FD138
:102160001BE0112E16D0122E2AD119E0B8F5881FC7
:1021700019D006DCB8F5803F15D0B8F5801F1FD107
:1021800011E0B8F5001F0ED0B8F5041F18D10AE011
:10219000CB6815E0CB681B1D12E0CB6808330FE05D
:1021A000CB680C330CE08B682BB1012B4FF008038C
:1021B00003D0456104E0042302E0056100E0002350
:1021C000FF2A01D8064601E000F104064FEA840523
:1021D00001D9A5F12005D6F8008007FA05FC28EA08
:1021E0000C0803FA05F548EA0508C6F800804D68B2
:1021F000ED0070D53E4DAE6946F00106AE61AD69A9
:1022000024F0030605F0010500953A4D06EB050C98
:10221000DCF80850A607360F07FA06F825EA080585
:10222000DFF8D480404503D14FF0000825E052E0AC
:10223000DFF8C880404502D14FF001081DE0DFF80B
:10224000C080404502D14FF0020816E0DFF8B480AC
:10225000404502D14FF003080FE0DFF8AC80404565
:1022600002D14FF0040808E0DFF8A080404502D119
:102270004FF0050801E04FF0060808FA06F848EAB2
:102280000508CCF808804D68D9F80060ED034D468C
:1022900001D5164300E096432E604D68DAF80060E1
:1022A000AD03554601D5164300E096432E604D68B8
:1022B000DBF80060ED025D4601D5164300E0964371
:1022C0002E604D68DEF80060AD02754601D51643FC
:1022D00000E096432E60641C0A681646E2407FF4D4
:1022E00029AFBDE8F88F0000000401400000111084
:1022F000001002400000014000080140000C0140B5
:10230000001001400014014000180140001C014071
:102310008068084000D001207047C26821EA0203AB
:102320000A4043EA0241016170470AB10161704706
:102330000904FBE70148806870470000280200207C
:1023400002488168027811448160704728020020A9
:10235000074810B5016841F010010160032000F04A
:1023600075F8002000F006F800F024F8002010BDF9
:102370000020024070B50D4D04464FF47A71287864
:10238000B1FBF0F00A490968B1FBF0F001F007FA7F
:1023900048B9102C07D200222146501E00F036F812
:1023A00000206C6070BD012070BD0000280200207C
:1023B000340200200C4808B5816941F001018161B7
:1023C000816901F001010091C16941F08051C16151
:1023D000C06900F0805000900448416821F0E0613D
:1023E00041F00071416008BD001002400000014052
:1023F000002809DB00F01F02012191404009800004
:1024000000F1E020C0F8001170470000F0B40E4B5E
:102410001B680C46C3F30223C3F10705042D00D942
:102420000425191D072901D2002300E0DB1E012627
:1024300006FA05F1491E214099409E40761E16403D
:102440003143F0BC04F04ABA0CED00E0064900F05C
:10245000070208684FF6FF03184040EA0220034ACB
:1024600010430860704700000CED00E00000FA0522
:1024700010B50C0607D501F0070101EB810100EB57
:10248000C100283005E001EB810100EBC10000F53F
:10249000B47099B232B1012202730181190C4181E9
:1024A000002010BD00220273C180F9E7704701EBE4
:1024B000810200EBC202D0F8E802D26B03F019B936
:1024C00001EB810200EBC202D0F8E802D2F87C21D5
:1024D00003F072B970B504460B0601F0070000EB7B
:1024E000800104EBC1014FF001024FF0000503D55C
:1024F00081F82920283103E081F8695101F5B47190
:10250000087094F8A802012808D084F8A82220684E
:1025100003F092FD84F8A852002070BD022070BD27
:1025200070B5044601F00F006268904201D90120A5
:1025300070BD0B0601F0070000EB800104EBC10148
:102540004FF001024FF0000503D581F82920283112
:1025500003E081F8695101F5B4718D70087094F849
:10256000A802012808D084F8A822206803F001FE00
:1025700084F8A852002070BD022070BD2DE9F05FE4
:1025800004685FEA424C0B788D69B4F850C04FF094
:1025900000064BF68F7948F2800A48F68F7B48F2A6
:1025A000C00E4FF480672AD54FF0020808EBC3082D
:1025B000C44407EB4C07E45BC4F30904A54203D30E
:1025C0002D1B8D6101D00BE08E61066836F823501B
:1025D00005EA090585F4005545EA0A0526F8235061
:1025E000520609D50D78036833F8252002EA0B025C
:1025F00042EA0E0223F8252084B30A8929E04FF02D
:10260000060808EBC308C44407EB4C07E45BC4F3BB
:102610000904A54203D32D1B8D6101D00BE08E610F
:10262000066836F8235005EA090585F4005545EAA1
:102630000A0526F82350520609D40B78056835F8A8
:10264000232002EA0B0242EA0E0225F823202CB1D5
:102650004A8949690068234604F0FAF82046BDE833
:10266000F09F2DE9F05F054600680C465FEA426C7A
:1026700016468B692278B0F850C048F68F774CF236
:1026800080094FF6FF7B4FF4004E4FF4806A4FF005
:1026900000017BD54FF0020808EBC208E0440AEBCA
:1026A000480C30F80C00C0F30900834211D91B1A02
:1026B000A3610FD0730407D52E6836F822303B4053
:1026C00043EA090326F8223094F82420012A50D046
:1026D0004EE1A161607810B1012813D01AE028689A
:1026E000B0F85030184400EB0210B0F8042422F483
:1026F000F842A0F80424B0F8042442F40042A0F800
:10270000042407E02868B0F85030184400EB0210A9
:10271000A0F804146278286812B1012A11D018E0D8
:10272000B0F850100844217800EB0110B0F80C14F8
:1027300021F4F841A0F80C14B0F80C1441F4004155
:1027400005E0B0F850201044227800EB0210A0F809
:102750000C1421782846FFF7AAFE7004B8D521781A
:102760002A6832F82100384040EA090022F82100A6
:10277000FEE0626902446261E2690244E261236947
:10278000226A9A4203D31846111A04E038E084F80A
:1027900024100AB110462162617811B1012923D0B9
:1027A0002BE02968B1F850201144227801EB021186
:1027B00001F2044148B13E280FD84208C30700D0B7
:1027C000521C0BEA82220A8017E00A8822F4F8429F
:1027D0000A800A8842F40042F5E74209C30600D1A4
:1027E000521E4EEA8222EEE72968B1F850201144C9
:1027F000227801EB0211A1F8040483B22289B3E02C
:102800004FF0060808EBC208E0440AEB480C30F829
:102810000C00C0F30900834211D31B1AA3610FD02F
:10282000730407D42E6836F822303B4043EA09038C
:1028300026F8223094F82420012A50D098E0A16193
:10284000607810B1012813D01AE02868B0F8503031
:10285000184400EB0210B0F8042422F4F842A0F867
:102860000424B0F8042442F40042A0F8042407E051
:102870002868B0F85030184400EB0210A0F8041497
:102880006278286812B1012A11D018E0B0F850100F
:102890000844217800EB0110B0F80C1421F4F84141
:1028A000A0F80C14B0F80C1441F4004105E0B0F8A5
:1028B00050201044227800EB0210A0F80C1421786C
:1028C0002846FFF7F4FD700452D42278296831F8C5
:1028D0002200384040EA090021F8220048E06269FD
:1028E00002446261E2690244E2612369226A9A4217
:1028F00003D31846111A216204E00AB1104621627E
:1029000084F824106278296812B1012A22D029E0C3
:10291000B1F850201144227801EB021101F20C4170
:1029200048B13E280FD84208C30700D0521C0BEA1A
:1029300082220A8016E00A8822F4F8420A800A8875
:1029400042F40042F5E74209C30600D1521E4EEAA6
:102950008222EEE7B1F850201144227801EB0211F7
:10296000A1F80C04628983B26169286803F08EFFC4
:1029700021782A6832F8210048F6BF73184080F0A9
:10298000300048F28003184322F821000020BDE8FF
:10299000F09F01F0070101EB810100EBC100D0F8CD
:1029A000840170472DE9F04104460F0601F007004D
:1029B00000EB800104EBC1014FF001064FF0000570
:1029C00003D581F82960283103E081F8695101F5C8
:1029D000B47108700A61CB704A7802B1C881022BC9
:1029E00000D10D7194F8A802012809D084F8A862DA
:1029F000206803F0F3F9284684F8A852BDE8F08176
:102A00000220FBE770B50C4601F0070505EB8501D8
:102A100000EBC101C1E95F230022C1F8842181F8E4
:102A2000692181F8685101F5B4716207006803F00B
:102A3000F5FB002070BD70B504460D4601F007009F
:102A40006168884201D9012070BD29064FF0000657
:102A50004FF0010207D500EB800104EBC10181F8C2
:102A60002920283107E005EB850104EBC10181F83D
:102A7000696101F5B4718A70087094F8A8020128A0
:102A800007D084F8A822206803F0AFFB680702D0C3
:102A900006E0022070BD04F52C71206803F067FB8E
:102AA00084F8A862002070BD70B50C4601F00705DF
:102AB00005EB850100EBC101C1E90F23012281F87B
:102AC0004C208B6400234B6481F8292001F8285F97
:102AD0006207006803F0A2FB002070BD1FB504462A
:102AE000006803F0B1FE000402D5204601F0DEFCD0
:102AF000206803F0A9FE40050CD5206830F8441F7B
:102B000021F480610180204600F01EF9002120465A
:102B100000F035F9206803F097FE400405D52068E1
:102B200030F8441F21F480410180206803F08CFEBE
:102B3000800405D5206830F8441F21F4005101803D
:102B4000206803F081FEC00414D5206830F8401FCF
:102B500021F004010180206830F8401F21F00801B5
:102B60000180204600F003F9206830F8441F21F46A
:102B700080510180206803F067FE00053ED5226881
:102B80000020694632F8203021F81030401CC0B2D5
:102B90000828F7D332F8400F40F001001080206879
:102BA00030F8402F22F0010202802068B0F8442063
:102BB0005205FBD530F8442F22F4806202800020B9
:102BC000236831F8102023F82020401CC0B20828C8
:102BD000F6D3206830F8401F41F0080101802068DA
:102BE00030F8441F21F400610180206830F8401F54
:102BF00041F004010180204600F0F6F8206803F05F
:102C000023FE800508D5206830F8441F21F40071A8
:102C10000180204600F0AFF8206803F015FEC005E3
:102C200005D5206830F8441F21F4807101801FBD54
:102C30002DE9F04186B0040004D094F8A9020025E3
:102C400020B108E0012006B0BDE8F08184F8A85268
:102C5000204600F05BF8032084F8A902206803F006
:102C60007FFA04F11001142288466846FDF78CFAB9
:102C700094E80F0003F0DEF90226D0BB00212068A3
:102C800003F0FCFD002001270FE000BF00EB8001F6
:102C900004EBC10181F8297001F8280FC881CD70BB
:102CA0000D614D61401CC0B28D6161688142EDD8FB
:102CB000002011E000EB800104EBC10181F86951B3
:102CC00081F8680181F86B51C1F87851C1F87C51E5
:102CD000401CC0B2C1F8805161688142EAD8142218
:102CE00041466846FDF750FA94E80F0003F02FFACA
:102CF00010B184F8A962A5E784F8245084F8A97279
:102D0000206803F022FA00209DE7000008B5006863
:102D10000B49884212D10B48C16941F40001C161DD
:102D2000C069002200F40000009011461420FFF753
:102D30006DFBBDE808401420FFF75ABB08BD00003A
:102D4000005C00400010024070B504468068012518
:102D5000022801D0FEF758FA2946D4F8E80202F01A
:102D600014FED4F8E802BDE8704002F0D0BDD0F8FF
:102D7000E80202F0F4BDD0F8E80202F0FABD10B5A6
:102D8000044690F8A80201280BD0012084F8A8027C
:102D900084F82410206803F073FD002084F8A80252
:102DA00010BD022010BDD0F8E82200F52C711046AD
:102DB00002F0F7BD10B5044690F8A802012810D023
:102DC000012084F8A802206803F02EFD012120468E
:102DD000FFF76CFB206803F0B6F9002084F8A80226
:102DE00010BD022010BD000010B50446D0F8E80266
:102DF00002F016FEA069002804D00348016841F0E3
:102E00000601016010BD000010ED00E010B52CA41B
:102E100001461DCC86B08DE81D002DA02D4C00680C
:102E20000490002004292FD00BDC01292FD0022987
:102E300028D100F071F96168C1F38131491C490062
:102E40001EE0082920D010291CD161682268D20117
:102E500018D5C1F38342C9031DF8020009D5616882
:102E600004AAC1F34041515C1B4AB2FBF1F1484353
:102E700001E01A4948436168490203D44000032134
:102E8000B0FBF1F006B010BD00F056F9FAE7226A87
:102E9000C2F30121012903D1920701D5C803F1E74B
:102EA000022905D1626A920702D549F64040E9E756
:102EB0000329E7D121688903E4D54FF22440E1E7F3
:102EC00002030405060708090A0B0C0D0E0F10106B
:102ED000010200000010024000127A0000093D00CB
:102EE0002DE9F84305460078354CC00754D0E06919
:102EF0000026C00008D4E06940F08050E061E0693D
:102F0000012600F0805000902E480168C90512D4B7
:102F10000168804641F480710160FFF70BFA0746B3
:102F200005E000BFFFF706FAC01B642823D8D8F8D5
:102F30000000C005F6D5206A10F4407021D0A988A1
:102F400001F4407181421CD0206A1F49012220F403
:102F500040700A6000220A602062C00711D0FFF7AB
:102F6000E9F9074641F2883808E000BFFFF7E2F9C7
:102F7000C11B414502D90320BDE8F883206A8007C0
:102F8000F4D5206A696820F44070084320621EB1BD
:102F9000E06920F08050E0612878800705D56068FE
:102FA000A96820F44040084360602878C00605D531
:102FB0006068696920F48000084360600020DBE7F6
:102FC0000010024000700040400442422DE9F047EA
:102FD0000F46050061D0434E306800F00700B8424C
:102FE00009D2306820F0070038433060306800F0C4
:102FF0000700B84251D128683B4C810712D54007E1
:1030000003D5606840F4E06060602878000703D56D
:10301000606840F4605060606068A96820F0F0006B
:10302000084360602878C00728D06868012810D05D
:103030002168022810D0890700292EDA616821F062
:10304000030101436160FFF775F9804641F2883959
:103050000DE021688903EFE78901EDE7FFF76AF9E1
:10306000A0EB0801494502D90320BDE8F08760685C
:10307000696800F00C00B0EB810FEFD1306800F010
:103080000700B8420BD9306820F0070038433060A1
:10309000306800F00700B84201D00120E5E7287849
:1030A000400705D56068E96820F4E0600843606087
:1030B0002878000706D56068296920F4605040EA46
:1030C000C100606000F038F86168084AC1F303117C
:1030D000515CC8400649086006480068FFF74AF995
:1030E0000020C2E700200240001002405072000899
:1030F000340200202C020020044805490068496879
:10310000044AC1F30221515CC840704734020020D8
:1031100000100240607200080448054900684968D0
:10312000044AC1F3C221515CC840704734020020F8
:10313000001002406072000812A185B00FC98DE82E
:103140000F0014A0144A006804905168134801F05D
:103150000C03042B10D0082B0ED1C1F38343C903F9
:103160001DF803000AD5516804AAC1F34041515C1F
:103170000A4A5043B0FBF1F005B070470849484394
:10318000FAE7000002030405060708090A0B0C0D04
:103190000E0F1010010200000010024000127A0011
:1031A00000093D002DE9F84F040070D02078C04D93
:1031B000C00749D06868C0F38100012807D068685B
:1031C000C0F38100022809D16868C00306D52868C9
:1031D000800339D560680028E7D035E06068B0F535
:1031E000803F0BD010B1B0F5A02F11D0286820F48B
:1031F00080302860286820F4802002E0286840F4AD
:1032000080302860606890B1FFF794F806460AE0C5
:10321000286840F480202860F0E700BFFFF78AF8B4
:10322000801B642873D828688003F7D50CE0FFF76B
:1032300081F8064605E000BFFFF77CF8801B642894
:10324000F0D828688003F7D420789A4E80074FF092
:1032500001094FF0000839D5686810F00C0F07D04D
:103260006868C0F38100022809D16868C00306D4E9
:103270002868800714D52069012808D110E020694A
:10328000B0B1C6F80090FFF755F8074605E00AE12F
:10329000FFF750F8C01B0228C4D828688007F7D56C
:1032A0002868616920F0F80040EAC10028600DE05C
:1032B000C6F80080FFF73EF8074604E0FFF73AF84B
:1032C000C01B022823D828688007F7D4207800077D
:1032D0002CD57948A169D9B1C0F80090FFF72AF838
:1032E000074604E0FFF726F8C01B02280FD8686ADB
:1032F0008007F7D571484FF4FA510068B0FBF1F040
:10330000009000BF0098411E0091FAD20EE080E0CC
:10331000C0F80080FFF70EF8074604E0FFF70AF850
:10332000C01B022875D8686A8007F7D42078400748
:1033300060D5E8690027C00008D4E86940F08050F3
:10334000E861E869012700F0805000905C4801685E
:10335000C90513D40168834641F480710160FEF70A
:10336000E9FF824606E000BFFEF7E4FFA0EB0A009B
:1033700064284ED8DBF80000C005F5D5E0680128C8
:103380000AD008B1052813D0286A20F0010028626D
:10339000286A20F0040002E0286A40F00100286258
:1033A000E06841F2883B98B1FEF7C4FF82460BE02B
:1033B000286A40F004002862EEE700BFFEF7BAFF7B
:1033C000A0EB0A0159455AD8286A8007F6D50CE0C7
:1033D000FEF7B0FF824605E0FEF7ACFFA0EB0A0166
:1033E00059454CD8286A8007F6D41FB1E86920F007
:1033F0008050E861E06988B36968C1F381010229FE
:1034000044D00228C6F8608004D0FEF793FF04463B
:1034100038E034E0FEF78EFF074604E0FEF78AFF4F
:10342000C01B02282BD828688001F7D4206AB0F589
:10343000803F05D16868A16820F4003008436860C7
:10344000D4E908010843696821F4741108436860ED
:10345000C6F86090FEF76EFF044606E025E000BF68
:10346000FEF768FF001B022809D828688001F7D5FD
:103470001BE000BFFEF75EFF001B022802D90320FD
:10348000BDE8F88F28688001F4D40EE00128F7D059
:103490006868226A00F48031914204D1616A00F4C4
:1034A0007010884201D00120EAE70020E8E7000020
:1034B00000100240000042428004424234020020D8
:1034C0000070004070B5040009D0606A002540B16A
:1034D00025616561A56294F8510040B10CE00120BE
:1034E00070BD6068B0F5827FF4D0E561F2E784F8E2
:1034F0005050204600F040F8022084F85100206827
:10350000016821F040010160A088218900F48270E7
:1035100001F404410843A18901F400610843217CBE
:1035200001F002010843217D01F001010843218BD4
:1035300001F400710843217F01F03801084394F839
:10354000201001F080010843218D01F4005108434F
:1035500021680860A069042101EA104021684860E0
:103560002068C16921F40061C1616565012084F8AA
:103570005100002070BD000030B585B000240094DB
:10358000019402940394274D0368274802210322E3
:10359000AB421DD1836943F480538361836903F493
:1035A00080530493836943F00403836180691F4D52
:1035B00000F004000490A020CDE9000103926946C8
:1035C0002846FEF7A9FD4020CDE90004029422E040
:1035D000174DAB4223D1C36943F48043C361C36930
:1035E00003F480430493836943F008038361806993
:1035F000104D00F0080004904FF42040CDE9000188
:10360000039269462846FEF787FD4FF48040CDE9D6
:1036100000040120029069462846FEF77DFD05B0B2
:1036200030BD0000003001400010024000080140A1
:1036300000380040000C01402DE9F84F044690F896
:10364000500000271D461646894601280DD04FF030
:10365000010B84F850B0FEF76DFE804694F85100DF
:10366000BA46012804D0022793E00220BDE8F88F73
:10367000B9F1000F73D0002E71D0032084F85100EF
:10368000C4F854A0C4F83090A686E686C4F838A0E2
:10369000A4F83CA0A4F83EA0C4F844A0C4F840A0FC
:1036A000A068B0F5004F09D12068016821F0400101
:1036B00001602068016841F4804101602068016870
:1036C000490603D4016841F040010160E068B0F5AB
:1036D000006F606803D030B3012E24D041E008B100
:1036E000012E1CD1206B21680088C86006E020688C
:1036F0008168890709D5216B0988C160206B801C0E
:103700002063E08E401EE08609E0FEF713FEA0EB8A
:103710000800A84202D3681C01D031E07DB3E08EDE
:103720000028E4D120E0206B21680078087306E0CF
:1037300020688168890709D5216B09780173206B9E
:10374000401C2063E08E401EE0860AE0FEF7F2FD9A
:10375000A0EB0800A84203D3681C02D010E017E0D9
:103760006DB1E08E0028E3D142462946204601F0A3
:103770000AFA08B120206065A06818B106E0FFE7EA
:10378000032706E02068C16880680090606D00B182
:10379000012784F851B084F850A0384666E710B588
:1037A000401EB0F1807F01D3012010BD4FF0E02416
:1037B00060610F21601703F091F80020A0610720DD
:1037C0002061002010BD704770470000F8B5026806
:1037D00004461068D168536910F00F0F4FF00005D0
:1037E00053D003F0010601F4907737435FD0C2074E
:1037F00005D0CA0503D5226C42F0010222644207BB
:1038000005D5DA0703D0226C42F002022264820757
:1038100005D5DA0703D0226C42F0040222640207C5
:1038200007D501F02002324303D0226C42F0080297
:103830002264226C002A34D0800604D5880602D582
:10384000204601F067FB20684069216CC0F38010BE
:10385000090700D430B3204601F044FB20684169D9
:1038600049061BD5416921F040014161A06BA8B117
:1038700058494163A06BFEF70BFA002811D0A06BEA
:10388000416B01B0BDE8F040084783060FD58B06B9
:103890000DD52046BDE8F84001F03CBB2046FFF7BF
:1038A00093FFF8BD2046FFF78FFF2564F8BD266B18
:1038B0002023012E52D1C60650D5CE064ED5106813
:1038C00050680090506940062AD5A16B086840688E
:1038D0000004000CEAD0A68D8642E7D9E08588690D
:1038E000202818D0D06820F48070D060206841690A
:1038F00021F0010141612068416921F040014161ED
:1039000084F83E3025632068C16821F01001C16051
:10391000A06BFEF79AF9A08DE18D401A81B219E0F3
:10392000A08DE18D401A81B2E08D0028BED0002923
:10393000BCD0D06820F49070D0602068426922F03A
:103940000102426184F83E3025632068C26822F09B
:103950001002C2602046FFF736FFF8BD05062BD5E2
:103960000D0629D594F83D002128F6D1A068B0F5C0
:10397000805F01D12069B0B1206A411C21622168B9
:1039800000784860E08C401E0004000CE084E4D124
:103990002068C16821F08001C1602068C16841F0E1
:1039A0004001C160F8BD206A0088C0F30800506083
:1039B000206A801C2062E5E74006F3D54806F1D571
:1039C000D168204621F04001D16084F83D3000F0FC
:1039D000F6F8F8BDD54E000870B5040004D094F890
:1039E0003D00002510B106E0012070BD84F83C5078
:1039F000204600F023F8242084F83D002068C168A8
:103A000021F40051C160204601F0E0FA206801690C
:103A100021F4904101612068416921F02A0141614E
:103A20002068C16841F40051C1602564202084F8F9
:103A30003D0084F83E00002070BD000030B585B028
:103A40000024009401940294039400681849884269
:103A50002CD11848816941F480418161816901F468
:103A600080410491816941F0040181618069124DB6
:103A700000F0040004904FF40070009002200190C8
:103A80000320039069462846FEF746FB2815CDE93A
:103A90000004694628460294FEF73EFB00221146C8
:103AA0002520FEF7B3FC2520FEF7A2FC05B030BDB3
:103AB00000380140001002400008014090F83E30FC
:103AC000202B0ED159B152B190F83C30012B08D0C7
:103AD000012380F83C300023036301F0D3BA0120B6
:103AE000704702207047000010B5012205490648C2
:103AF000FFF7E4FF0349BDE8104001F10C0000F0BE
:103B0000EFBF000044090020680B00202DE9F843B6
:103B1000044690F83D001F4616460D4620284CD11D
:103B2000C5B1BEB194F83C00012846D0012084F80C
:103B30003C004FF00008C4F84080212084F83D008C
:103B4000FEF7F8FBA6848146E684A068B0F5805FA6
:103B500003D004E00120BDE8F883206928B12E4697
:103B60005FF0000584F83C800EE00026FAE7802133
:103B7000204601F0A2FAA0B9AEB116F8010B2168F7
:103B80004860E08C401EE084E08C4B464FF0000221
:103B900000970028EBD14FF04001204601F08DFA4C
:103BA00030B10320D7E735F8020BC0F30800E6E791
:103BB000202084F83D000020CDE70220CBE77047AD
:103BC000FEE7000070B5C0B0044600254FF48076D3
:103BD000200609D50121002001F068F83146684629
:103BE000FCF7EBFA14A108E00021084601F05EF8AA
:103BF00031466846FCF7E1FA10A1684602F05AFE29
:103C0000684601F03FF80EA001F03CF800210120C9
:103C100001F04CF80120FEF76DFA0121084601F091
:103C200045F80120FEF766FA60066D1C040EEDB241
:103C3000082DCDD340B070BD310000003000000031
:103C40000D0A0000F0B50D460646C1B00021032064
:103C500001F02CF80121042001F028F800244FF491
:103C6000807715E039466846FCF7A7FAC4F10800EA
:103C7000C20017A1684602F01DFE684601F002F876
:103C800016A000F0FFFF305DFFF79CFF641CE4B25C
:103C9000AC42E7D30021022001F008F80120FEF732
:103CA00029FA0121022001F001F80120FEF722FA91
:103CB00039466846FCF781FA09A1684602F0FAFD28
:103CC000684600F0DFFF05A000F0DCFF41B0F0BD6A
:103CD0002D2D2D2D2D2D2D2D256400000D0A0000DC
:103CE0002D2D2D2D2D2D2D2D2D2D2D2D2D2D2D0031
:103CF000F0B500230A24302537261F4611E000BF07
:103D0000B4EB107F02D905EB107C01E006EB107CD0
:103D100001F813C001EB430C00015B1C8CF801702F
:103D2000DBB29342ECD3F0BD2DE9F0433F4CC1B080
:103D30000D4606464FF48078092906D2414668466A
:103D4000FCF73BFA2A463AA108E0B5F5847F09D989
:103D500041466846FCF731FA2A463AA1684602F025
:103D6000A9FD56E0307980070ED541466846FCF73C
:103D700024FA39A1684602F09DFD2168684688470B
:103D8000216839A0884726E0701910F8021D407894
:103D900001EB00201FFA80F9A81E81B23046FCF723
:103DA000F7FF0746B94516D0454641466846FCF739
:103DB00004FA2EA1684602F07DFD21686846884716
:103DC000216829A0884729466846FCF7F6F93B4652
:103DD0004A462AA11AE0B679093DADB2AE4222D0D8
:103DE000474641466846FCF7E8F92DA1684602F0CF
:103DF00061FD21686846884721681BA088473946CD
:103E00006846FCF7DAF933462A462AA1684602F0EA
:103E100051FD216868468847216813A08847002023
:103E200041B0BDE8F0830120FAE700002402002041
:103E3000B0FCB3A4B9FDD0A1A3ACCEAA25640D0AF1
:103E400000000000B0FCB3A4B9FDB4F3A3ACCEAA4B
:103E500025640D0A00000000CCF8B9FD435243D0A0
:103E6000A3D1E90D0A0000000D0A0000435243D01F
:103E7000A3D1E9B4EDCEF32C2000000047657420F7
:103E80004352433A203078253034582C2043616C1B
:103E900063204352433A203078253034580D0A00CD
:103EA000CAFDBEDDB3A4B6C8B2BBD2BBD6C22C20FD
:103EB00000000000476574204C656E3A2025642C94
:103EC0002052656164204C656E3A2025640D0A001D
:103ED000C1680069814201D101207047002070470C
:103EE000C16802694068891A814201DB012070477C
:103EF000002070472DE9F04FC7B00546FDF700FAE6
:103F0000504C68B2DFF840814FF066376FF00B0914
:103F100004F1580600280FDB072D0DD82088FCF788
:103F200034FB3A464346FCF733FA4A46FCF711FBAA
:103F30000122FCF70EFB32E0A5F10800DFF80CA12E
:103F40000F2801D820880CE0A5F11800DFF800B197
:103F5000072801D8208815E0A5F1200003280CD8F7
:103F60006088FCF712FB3A464346FCF711FA4A46D2
:103F7000FCF7EFFA002253460FE0A5F124000328D6
:103F80002BD86088FCF701FB3A464346FCF700FA61
:103F90004A46FCF7DEFA00225B46FCF7F9F90022FC
:103FA0002C4BFCF7F5F9FCF749FB87B2A7804FF4DF
:103FB00080716846FCF701F956F825203B4626A19A
:103FC000684602F077FC684600F05CFE29A000F02D
:103FD00059FEA08847B0BDE8F08F282D01D0012000
:103FE000F8E74FF4807106A8FCF7E7F86088FCF763
:103FF000CCFABA463A464346FCF7CAF94E464A4618
:10400000FCF7A7FA05460F462088FCF7BEFA524691
:104010004346FCF7BDF93246FCF79BFA0246CDE970
:10402000002115A0CDE90457029016A218A106A8F8
:1040300002F040FC06A800F025FE0EA000F022FED3
:104040000020C7E7B800002066660A40000018405C
:1040500000E0514000408F405B6D61696E5D696EAC
:10406000666F203A76A3A82573A3A93D2025646D29
:10407000760D00000D0A000041445F56616C7565C5
:104080003200000041445F56616C756531000000EC
:104090005B6D61696E5D696E666F203A76A3A825D7
:1040A00073A3A93D2025666D760D0A2076A3A82569
:1040B00073A3A93D2025666D760D0A0A0000000055
:1040C0002DE9F0411D4DC0B000244FF4807805F17A
:1040D000400700BF05EBC40655F83400B188FEF771
:1040E00017F9B1798842414668460ED1FCF765F868
:1040F00057F8342012A1684602F0DCFB684600F055
:10410000C1FD10A000F0BEFD11E0FCF756F807EB72
:10411000C4000BA14268684602F0CCFB684600F080
:10412000B1FD08A000F0AEFD0120FDF7E3FF641C27
:10413000E4B2082CCED340B0BDE8F08108000020E6
:10414000257300000D0A00003EB5002411480094BC
:10415000019402940E498460016001250573047581
:1041600005614FF460214460C161FDF7A5FA08B113
:10417000FDF74AF807200094CDE90150694605484B
:10418000FDF714FA002801D0FDF73EF83EBD00000F
:1041900000240140E40900203EB5002410480094AA
:1041A000019402940D498460016001250573047532
:1041B00005614FF460214460C161FDF77DFA08B1EB
:1041C000FDF722F80095CDE9015469460448FDF752
:1041D000EDF9002801D0FDF717F83EBD0028014099
:1041E000140A00203EB50024114800940194029462
:1041F0000E498460016001250573047505614FF463
:1042000060214460C161FDF757FA08B1FCF7FCFF7B
:104210000220CDE90005694602940548FDF7C6F97C
:10422000002801D0FCF7F0FF3EBD0000003C01403B
:10423000440A0020094808B5416941F00201416182
:104240004069002200F00200009011463B20FEF77A
:10425000DDF8BDE808403B20FEF7CAB80010024078
:104260002DE9F04F85B00024444800940194029455
:104270000394816941F010018161816901F01001AD
:104280000491816941F020018161816901F020017F
:104290000491816941F004018161816901F00401A7
:1042A0000491816941F0080181618069DFF8D0B033
:1042B00000F008000490012210215846FEF735F85E
:1042C000DFF8C090012241F204014846FEF72DF8C4
:1042D000DFF8B4A001224FF4B8515046FEF725F89C
:1042E0004FF48078002241465846FEF71EF800221F
:1042F0004FF400615046FEF718F81E2002268DE8A4
:10430000510069465046FDF707FF1020012503279D
:104310008DE8E10069465846FDF7FEFE0420CDE930
:104320000005CDE9024669464846FDF7F5FE4FF423
:1043300070608DE8510069464846FDF7EDFE2803A0
:10434000CDE90005CDE9025769464846FDF7E4FE90
:104350004FF4F850CDE90005CDE9024769465046D3
:10436000FDF7DAFECDF800800396CDE901546946E9
:104370005846FDF7D1FE05B0BDE8F08F00100240B1
:1043800000080140000C014000100140104810B529
:104390000E4901604FF48271416000218160012269
:1043A000C160C0E90412520282613022C0E90721D3
:1043B000416281620A21C162FFF784F8002803D0BC
:1043C000BDE81040FCF720BF10BD000000300140E8
:1043D000B80A0020104810B50E4901604FF48271F0
:1043E0004160002102228160C0E903121202C0E98B
:1043F00005120822C0E90721416281620A21C162D7
:10440000FFF760F8002803D0BDE81040FCF7FCBEC1
:1044100010BD000000380040100B00200C4810B503
:104420000A4901604FF4E1314160002181600C22B2
:10443000C160C0E904128161C161FFF7CDFA0028B3
:1044400003D0BDE81040FCF7DFBE10BD00380140CE
:10445000680B002010B500220F49104801F022F926
:1044600008B1FCF7D1FE0E490C4801F0FFFA08B183
:10447000FCF7CAFE0B49094800F03CFF08B1FCF705
:10448000C3FE064801F048FB002803D0BDE81040F9
:10449000FCF7BABE10BD000038020020AC0B0020B3
:1044A0007403002088020020FEE770472DE9F84FD2
:1044B000044640F68F7B48F60F7A4FF002094FF41E
:1044C000806874E1B0F8441011F00F063AD030F86B
:1044D000267039047DD530F8261001EA0B0141F031
:1044E000800120F8261006EB860004EBC00595F845
:1044F000740105F5B47500286CD0E87802286AD0FC
:104500002878226832F8201048F68F73194048F254
:10451000C003194322F820102878D4F800C03CF8D2
:104520002010BCF8502049047ED509EBC0001118BA
:1045300008EB41003CF800008005800D009074D02D
:104540002A89D8E0C9062DD4018801EA0A0141F47C
:1045500000410180216804F12805B1F850202B7832
:1045600009EBC300024408EB4200085AC0F30900FB
:104570006064E16B0844E06300212046FDF797FF8B
:1045800094F8240000289CD0A869002899D194F8B8
:104590002400216840F08000A1F84C00002084F83D
:1045A000240004E1018804F5B4750A0521D5B0F8AA
:1045B00050202B78062101EBC3010A4408EB42018D
:1045C000405A04F52C71C0F30903EB61EA882068B6
:1045D00002E0ACE068E07AE002F03AF9216808888D
:1045E00000EA0B0040F0800008802046FEF7DBFB6D
:1045F000DDE00904D5D5018801EA0B0141F0800115
:1046000001802068B0F850202B78062101EBC3010F
:104610000A4408EB4201405A83059B0DEB6110D020
:10462000696971B1EA8801E058E056E0206802F05B
:104630000FF9E96968690844686100212046FDF7BF
:104640003FFF2068018809052DD4B0F850100844B8
:10465000296900F20C4051B13E2910D84A08C90717
:1046600000D0521C4FF6FF7101EA82210FE0018851
:1046700021F4F8410180018841F4004107E04A0932
:10468000C90600D1521E4FF4004141EA8221018047
:10469000206801884BF68F72114081F4405148F236
:1046A00080021143018082E0D4F800C0BCF85010B1
:1046B0002A78062000EBC200014408EB41003CF8D8
:1046C00000008005800D00901AD0EA8813E03A4679
:1046D00029462046FDF752FF009011E0062101EB2C
:1046E000C000111808EB41003CF800008005800D67
:1046F000009005D06A8903466046696902F0A8F80F
:10470000E96900980844E8616969009808446861AB
:10471000A86918B129690098814204D929782046EE
:10472000FDF7CEFE03E02946206801F077FD38064C
:104730003DD506EB860004EBC001206830F826204A
:1047400002EA0A0242F4004220F8262091F82B00E7
:104750002831032804D018B1022824D1F80522D426
:104760002368B3F850200D7809EBC500024408EB2C
:104770004200185A8A69C0F3090082420CD9121A01
:104780008A610BD04A6902444A61CA691044C8610F
:10479000206801F043FD0AE000208861E9B220466C
:1047A000FDF785FE03E03A462046FDF75AFF2068F4
:1047B000B0F8441009043FF585AE0020BDE8F88F3D
:1047C0007047704730B50446408840F2A223002568
:1047D000C1B0A0F2A2224FF48071984272D039DCAD
:1047E00040F2A313A0F2A31298427DD00CDCA228C1
:1047F00072D0A0F58070A13859D0012828D1FDF7DA
:1048000079FC217AE0796EE00124012A6DD0022A38
:104810001ED15BA0006840906846FBF7CEFC9DF877
:10482000002158A1684602F045F85AA000F02AFA83
:10483000684600F027FA5BA000F024FA40AB40F293
:10484000A51259480121CDE9004500BFFCF700FC45
:1048500041B030BD40F20123A2F201209A427BD048
:104860001ADC012A56D0A2F58072013AF0D1607AA2
:1048700000EB80004000FBF783FE0546207A4B49A1
:104880004843FBF77DFE0146A37AE07941B02A4612
:10489000BDE83040FCF768B888425ED0B0F5F05F04
:1048A000D6D141B02046BDE83040FCF7B1BDE0793B
:1048B00008B1012100E0002141B00020BDE83040F6
:1048C00000F00CBA0120FDF715FC217AE07941B027
:1048D000BDE83040FCF720BA0120FDF70BFC00F0EA
:1048E000EDF80021084601E005E03BE041B0BDE8FD
:1048F000304000F0D7B80120FDF7FCFBE07900F074
:104900000DFA0120FDF7F6FBE07941B0BDE830403B
:10491000FFF7F0BA0120FDF7EDFBE079401CC1B2D2
:104920000220FCF7ADF900F029FA0120FDF7E2FBC7
:1049300000F0B2FA002102AA10F811305354491CB9
:1049400089B2C829F8D3C820CDE90005134640F242
:10495000A3220121144879E70CE041B0BDE83040C2
:10496000FCF746B8FFF7ACFB8DF8080002AB4FF43C
:10497000D27266E741B0BDE83040FCF7A5BC00004C
:1049800006000000B0E6B1BEBAC5CEAA565F2564E7
:1049900000000000A1BE6C6F67A1BF64656275670F
:1049A0003A0000000D0A000024070020A086010044
:1049B0000A4810B5C1680069081A0404240C0CD018
:1049C00022460749054800F0A3F822460449BDE8FD
:1049D000104001F18000FCF723BA10BD50090020FF
:1049E000A4060020F0B50E88ADF5057D0F460546FE
:1049F000B6F5847F1BD800244FF404716846FBF79A
:104A0000DCFB324629466846FBF7BEFB0020DB2272
:104A10006B4609E0195CC0290CD0DB290DD0295563
:104A2000641C401CA4B280B2B042F3D33C800DF5AC
:104A3000057DF0BD2A55DC2101E02A55DD2105EB7D
:104A4000040CA41C8CF80110EBE77047FFF7BABE0A
:104A500070B50C460546FBF798FD4FF033320F4B0F
:104A6000FBF708FDFBF7EAFDC1B24842B4FBF4F3E3
:104A700005EBC0000122401E82400948D2B233B18A
:104A8000012B09D1C1F10701435C134303E0C1F1DC
:104A90000701435C9343435470BD0000333320400F
:104AA000B000002010B5FFF7D3FFBDE8104008218B
:104AB0000148FFF7C7B80000B000002000200349FC
:104AC00002460A54401C0828FBDB7047B000002057
:104AD000C0E9001300210161C0E9022101207047F3
:104AE00070B50E4604460568FFF7FAF908B10020D4
:104AF00070BD6168E068491E0840A268314600FB4D
:104B00000250FBF741FBE068401CE060012070BDF3
:104B10002DE9F0479046894605460768FFF7D8F922
:104B200010B10020BDE8F087E86829696A68401A7A
:104B3000531E044619400B19934200D3541A061B06
:104B4000444500DD4446A8EB0400864200DD0646ED
:104B5000AA68484601FB02716243FBF715FB28690E
:104B6000204428616968AA68491E0840296800FB3A
:104B7000021104FB02907243FBF706FB28693044E4
:104B80002861A019CEE738B50B46009204460022F2
:104B9000802100F009F8002804D0606D40F020006A
:104BA0006065032038BD00002DE9F8431E4691469C
:104BB00088460446089DFDF7BDFB401B351AFDF7EE
:104BC000B9FB074625480068C0F3CB30684338E09E
:104BD000701C37D0FDF7AEFBC01BA84203D215B145
:104BE000009860B32CE02068416821F0E00141604A
:104BF0006068B0F5827F0BD1A068B0F5004F02D09D
:104C0000B0F5806F04D12068016821F04001016097
:104C1000A06AB0F5005F09D12068016821F4005155
:104C200001602068016841F400510160012084F8AE
:104C30005100002084F850000320BDE8F8830025CF
:104C4000401E00902068816838EA010004D00021ED
:104C50004945BDD10020F0E70121F9E734020020E9
:104C60007047000010B50C468AB201464FF0FF3382
:104C70000248FEF74BFF204610BD0000680B0020E5
:104C80000846704710B50446FBF7A2FA82B24FF40B
:104C90008070824200D902462146BDE810404FF0A4
:104CA000FF330148FEF732BF680B002030B40A4BD7
:104CB00003EBC00419B101290CD1A27902E0A1795A
:104CC00031B10022A18853F8300030BCFDF72DBB74
:104CD0000122F7E730BC70478800002030B40E4B4B
:104CE00003EBC00459B1012907D0022912D1A188D0
:104CF00053F8300030BCFDF710BBA27902E0A17977
:104D000031B10022A18853F8300030BCFDF70DBB53
:104D10000122F7E730BC70470000002010B50446C0
:104D2000154800EB440110F814004978FBF7A8FF80
:104D300060B2002805DB072C03D801210820FBF70F
:104D40009FFFA4F10800072803D802210820FBF7E1
:104D500097FFA4F11000072803D803210820FBF7D0
:104D60008FFF183C072C05D80421BDE8104008200F
:104D7000FBF786BF10BD0000BE0000202DE9F04FFC
:104D8000C1B02248FCF7A6FB642221491F48FCF76A
:104D9000ABFE204801688903FCD51C48FCF72AFFBC
:104DA0001B4DDFF87480DFF874A000244FF06637E5
:104DB0006FF00B094FF4807B35F81400FBF7E5FB2F
:104DC0003A464346FBF7E4FA4A46FBF7C2FB0022A9
:104DD0005346FBF7DDFAFBF731FC86B225F8146089
:104DE00059466846FBF7E9F932460DA1684601F0DD
:104DF00061FD6846FFF746FF0BA0FFF743FF641C09
:104E0000642CD9D341B0BDE8F08F0000440A0020E3
:104E10004C0400200004024066660A4000408F40B7
:104E2000253032646D7600000D0A0000FDF788BA67
:104E300030B595B028216846FBF7BFF914210AA8C0
:104E4000FBF7BBF918210FA8FBF7B7F901210804FC
:104E5000CDE900100024029402250491CDE9075009
:104E60004FF4E01009906846FEF79CF90F20CDE959
:104E70000A056802CDE90C4002210AA80E94FEF74B
:104E8000A5F812200F90A803119014940FA8FEF714
:104E900027F815B030BD704770B50D4E002406F1EF
:104EA000C80500BF36F81400C1B225F8241005EB80
:104EB0008401000A4880FBF7C1FE0A20FDF71AF9B9
:104EC000641CA4B2642CEDD30148C83070BD00004E
:104ED0004C04002010B5406A0021C185C184FEF752
:104EE00073FC10BD0168CA6822F49072CA60016840
:104EF0004A6922F001024A61016B012904D101686B
:104F0000CA6822F01002CA60202180F83E100021F9
:104F10000163704708B590F83E10222901D00220A5
:104F200008BD82684FF480539A4201D1016921B1D2
:104F3000816A9A421BD04AB10AE00268816A5268CB
:104F4000C2F308020A80816A891C08E0026972B112
:104F50000268526802F07F020A70816A491C81620D
:104F6000C18D491E0904090CC18503D019E00268EE
:104F70005268F1E70168CA6822F02002CA6001683D
:104F8000CA6822F48072CA6001684A6922F001028C
:104F90004A61202180F83E10016B012903D0FEF701
:104FA000A3FD002008BD002101630168CA6822F04A
:104FB0001002CA6001680A68D20602D50A68496808
:104FC0000091818DFEF7FFFBEBE7000070B5044612
:104FD00000680169E26821F44051114301612169CF
:104FE000A0680843616908432168CA6841F20C63FC
:104FF0009A430243CA6020684169A26921F4407162
:10500000114341611E492068884202D1FEF784F8AD
:1050100001E0FEF771F800EBC00101EB00126068DF
:1050200064218000B2FBF0F3B3FBF1F36FF01806DC
:105030007343B2FBF0F5B2FBF0F605EB83053223C8
:1050400003EB0515B5FBF1F5B6FBF1F605F0F00540
:1050500005EB0615B2FBF0F6B2FBF0F0B0FBF1F099
:105060006FF01802504306EB800003EB0010B0FB1A
:10507000F1F0216800F00F002844886070BD000046
:105080000038014081628285C285002101642222AC
:1050900080F83E2080F83C100168CA6842F48072B3
:1050A000CA6001684A6942F001024A610068C16849
:1050B00041F02001C160002070472DE9F041984681
:1050C00017460E460446069D1DE0681C1BD02DB1F8
:1050D000FDF730F9A0EB0800A84214D92068C16898
:1050E00021F4D071C1602068416921F00101416162
:1050F000202084F83D0084F83E00002084F83C0025
:105100000320BDE8F0812068006836EA000004D082
:105110000020B842D9D00020F3E70120F9E70000D1
:105120000148FEF753BB0000680B00202DE9F04159
:10513000D0F8C032D0F8B822CAB101EB810500EB3B
:1051400085040026E7693FB103EBC5039B6BB7FB02
:10515000F3F503FB157323B1C2F814620020BDE818
:10516000F08100231A46E66100F063FCF6E70220B6
:10517000F5E770B50546D0F8B84200F05EFBC4F81C
:105180000C02D5F8B80248B1D5F8BC12D4F8040224
:10519000CA6804F503719047002070BD022070BDFD
:1051A00070B504460026812100F09AFA00250121FD
:1051B0002046E56200F094FA82212046C4F86C5142
:1051C00000F08EFA2564D4F8B80248B1D4F8BC02D5
:1051D00004F52E7440688047206800F0FAFD2560D1
:1051E000304670BD10B5D0E9AE4159B194F8000217
:1051F000FF2807D08B6894F8012221469847FF20AA
:1052000084F80002002010BD0A2101800048704788
:105210009C0200204321018000487047EC020020DE
:105220004321018000487047A802002043210180EB
:1052300000487047300300202DE9F0410446002665
:10524000007C4FF40077012590B340230222812196
:10525000204600F047FB4023E56202220121204660
:1052600000F040FB0823032282212046C4F86C5141
:1052700000F038FB4FF40770256400F0ABFDC4F874
:10528000B802F8B10546D4F8BC0200688047002097
:10529000C5F81402C5F81802207CD5F8042298B18C
:1052A00040230121204600F029FB3046BDE8F08173
:1052B000FFE73B4602228121204600F013FB3B46DC
:1052C000E562CAE70126F0E73B46EAE710B5D0F809
:1052D000B81269B1027C002AD1F8042205D040231B
:1052E000012100F00BFB002010BD4FF40073F7E725
:1052F000022010BD02460220002902D00020C2F880
:10530000BC127047D0F8B802C0F8041200207047F1
:10531000D0F8B802C0F81022C0F808120020704778
:105320002DE9FC410546D0F8B87200208DF8000048
:10533000ADF80400064608780C4610F0600121D054
:1053400020293BD1E288AAB10006607807D5D5F8BC
:10535000BC128B6839469847E288394626E087F8C0
:105360000002A07987F80102E2883946284600F059
:105370004FF828E0D5F8BC12607800228B682146EF
:10538000984720E0607820B10A2809D00B2815D171
:1053900010E095F89C02032810D1022201A905E033
:1053A00095F89C02032809D101226946284600F09D
:1053B00049F808E095F89C02032804D021462846C5
:1053C00000F01BF802263046BDE8FC8110B5D0F88D
:1053D000B42252689047002010BD134610B50A460B
:1053E000002100F08BFA002010BD134610B50A46CC
:1053F000002100F01EFB002010BD10B504468021E6
:1054000000F0FCFA2046BDE81040002100F0F6BA9A
:1054100010B50323C0F85C21C0F89432C0F86021B5
:1054200013460A46002100F069FA002010BD10B5AD
:1054300005210023C0F894121A46194600F05EFABE
:10544000002010BD10B50223C261C0F89432026280
:1054500013460A46002100F0ECFA002010BD10B5FA
:1054600004210023C0F894121A46194600F0E1FA0C
:10547000002010BD10B50A46024903A000F0E2F872
:10548000004810BD700E002043444320436F6E66F9
:105490006967000012200880004870475802002009
:1054A00010B50A46024903A000F0CCF8004810BD30
:1054B000700E002043444320496E74657266616338
:1054C0006500000004200880004870475402002056
:1054D00010B50A46024903A000F0B4F8004810BD18
:1054E000700E002053544D6963726F656C65637470
:1054F000726F6E696373000010B50A46024903A01B
:1055000000F0A0F8004810BD700E002053544D3339
:1055100032205669727475616C20436F6D506F72E2
:105520007400000010B51A2008800A480168001DA8
:105530000468001D0068081809D008220649FEF713
:10554000D7FB0549042210312046FEF7D1FB024863
:10555000801E10BDE8F7FF1F6E020020F8B504465C
:105560000020ADF8000048880D46010A082948D2FD
:10557000DFE801F04704091747473C45D4F8B0126B
:10558000207C0A6819E0207C02260028D4F8B402A6
:1055900005D0C16A68468847014646703EE0816A88
:1055A000F8E7C0B206282CD2DFE800F0030A101496
:1055B000181CD4F8B002426805E0694690471CE028
:1055C000D4F8B0028268E2B1207CF6E7D4F8B002E9
:1055D000C268F8E7D4F8B0020269F4E7D4F8B00280
:1055E0004269F0E7D4F8B0028269ECE7207C40B968
:1055F000D4F8B402416B6846884701460EE0207C2F
:1056000020B129462046FFF7F8FEF8BDD4F8B402D1
:10561000016B68468847014607204870BDF80000C6
:1056200048B1EA8852B1824200D90246ADF8002062
:105630002046FFF707FFE8880028E6D12046FFF75D
:105640000EFFF8BD70B5002300281ED004460025CB
:1056500002E06D1CEDB2641C2678002EF9D1022404
:1056600004EB450414801278CA545B1C0322CA540C
:1056700000245B1C06E0CA545B1CDAB28C54521C3A
:10568000D3B2401C0278002AF5D170BD01004FF062
:10569000000004D0012901D0022901D00220704766
:1056A0000120704710B580B1D0F8B43213B1002397
:1056B000C0F8B43209B1C0F8B012012180F89C12D0
:1056C000027000F0BFF8002010BD022010BD10B520
:1056D000D0F8C002FCF724FFBDE81040FFF7D6BFAA
:1056E00010B5D0F8C002FCF7F5FEBDE81040FFF79A
:1056F000CDBF2DE9F0411746044651B1D4F8B402AC
:1057000042691AB194F89C02032851D00220BDE8E6
:10571000F081D4F89432002504F11400022B03D058
:10572000042B3AD0C3B33CE0D0E903639E4207D9CF
:10573000F11AC1608AB239462046FFF756FE12E0E0
:105740008068B0FBF3F103FB110199B9984211D3C2
:10575000D4F8981288420DD2002211462046FFF755
:1057600044FEC4F8985200231A461946204600F019
:10577000C5F816E0D4F8B402C16829B194F89C02C7
:10578000032801D1204688478021204600F036F9C1
:105790002046FFF74CFE04E0FFE78021204600F0A2
:1057A0002DF994F8A002012804D184F8A05201E058
:1057B000204690470020AAE770B51546044649B137
:1057C000D4F8B40282691AB194F89C02032830D04C
:1057D000022070BDD4F8941204F5AA70032902D0F7
:1057E00005291ED027E0D0E903218A420BD9531A9C
:1057F000C3600846834200D303469AB22946204636
:10580000FFF7EBFD17E0D4F8B402016929B194F871
:105810009C02032801D1204688472046FFF71FFE3F
:1058200009E000200146C4F89402204600F0E6F8A2
:1058300001E020469047002070BDD0F8C002FDF77F
:10584000A8B8000010B504461C481D49C0F8E8423D
:10585000C4F8C0020160082141600221816000217A
:105860008161C1610162FDF7E3F908B1FBF7CCFC8E
:105870000022D4F8C0021823114604F53074FCF756
:10588000F7FD5823002280212068FCF7F1FDC0239A
:10589000002281212068FCF7EBFD4FF48873002281
:1058A00001212068FCF7E4FD4FF48073002282217F
:1058B0002068FCF7DDFD002010BD0000601A00200C
:1058C000005C00400A0601F07F01D0F8C00201EB45
:1058D000810100EBC10002D590F82A00704790F8D2
:1058E0006A01704710B51C461346D0F8C002224624
:1058F000FDF758F8BDE81040FFF7C8BE10B5D0F866
:10590000C002FDF77FF8BDE81040FFF7BFBE70B5DD
:105910000022044640231146FFF7E4FF40260125FC
:10592000C4F864613346002280212046C4F85851EF
:10593000FFF7D8FF6662A56184F89C520020C4F886
:1059400094026060C4F8A402D4F8B80228B1D4F874
:10595000B4020021426820469047002070BD90F8B4
:105960009C12042903D190F89D1280F89C1200200B
:10597000704710B590F89C12032904D1D0F8B412E6
:10598000C96901B18847002010BD0174002070472B
:1059900010B5D0F8C002FDF7F2F9BDE81040FFF7EE
:1059A00075BE70B5044600F52A70054600F04AF849
:1059B0000120C4F89402B4F8AE02C4F8980294F836
:1059C000A80210F01F010AD001290DD0022910D021
:1059D00000F08001204600F011F8002070BD29463B
:1059E000204600F09EF8F8E72946204600F0CAF964
:1059F000F3E72946204600F01DF9EEE710B5D0F890
:105A0000C002FDF718F8BDE81040FFF73FBE10B523
:105A1000D0F8C002FDF7CEF9BDE81040FFF736BE62
:105A200090F89C1280F89D12042180F89C120020AE
:105A3000704710B5D0F8C002FDF736F8BDE8104049
:105A4000FFF724BE0A7802704A7842708A78CB78D1
:105A500002EB032242800A794B7902EB0322828017
:105A60008A79C97902EB0121C18070470246002082
:105A700011B1C2F8B41270470220704710B5D0F8C7
:105A8000B42202241AB11268904700B900242046BB
:105A900010BD000070B50E461E4D89780446297071
:105AA000012931D894F89C0202280BD003280FD08A
:105AB00031462046FFF7A1FC29782046BDE870401A
:105AC000FFF784BCD9B10320616084F89C0209E02F
:105AD00071B16068884212D0C1B22046FFF776FCEF
